:020000040800F2
:1000000000000320054C00088548000887480008C8
:10001000894800088B4800088D480008000000004F
:10002000000000000000000000000000554C000827
:100030008F48000800000000554C0008554C00088F
:10004000554C0008554C0008554C0008554C00080C
:10005000554C0008554C0008554C0008554C0008FC
:10006000554C0008554C0008554C0008554C0008EC
:10007000554C0008554C0008554C0008554C0008DC
:10008000554C0008554C0008554C0008554C0008CC
:10009000554C0008554C0008554C0008554C0008BC
:1000A000554C0008554C0008554C0008554C0008AC
:1000B000554C0008554C0008554C0008554C00089C
:1000C000554C0008554C0008554C0008554C00088C
:1000D000554C0008554C0008554C0008554C00087C
:1000E000554C0008554C0008554C0008554C00086C
:1000F000554C0008554C0008554C0008554C00085C
:10010000554C0008554C0008554C0008554C00084B
:10011000554C0008554C000891480008554C000803
:10012000554C0008554C0008554C0008554C00082B
:10013000554C0008554C0008554C0008554C00081B
:10014000554C0008554C0008554C0008554C00080B
:10015000554C0008554C0008554C0008554C0008FB
:10016000554C0008554C0008554C0008554C0008EB
:10017000554C00089D480008554C00080000000040
:10018000554C0008554C0008554C0008554C0008CB
:10019000554C0008554C0008554C0008554C0008BB
:0C01A000A9480008554C0008554C000808
:1001AC0010B5054C237833B9044B13B10448AFF3A5
:1001BC0000800123237010BD8C0000200000000083
:1001CC00584E000808B5034B1BB103490348AFF365
:1001DC00008008BD0000000090000020584E000870
:1001EC0053B94AB9002908BF00281CBF4FF0FF3192
:1001FC004FF0FF3000F07AB9ADF1080C6DE904CE88
:10020C0000F006F8DDF804E0DDE9022304B07047E5
:10021C002DE9F0478C460D460446089E002B51D123
:10022C008A4217466DD9B2FA82FEBEF1000F0BD08E
:10023C00CEF1200C01FA0EF520FA0CFC02FA0EF7A6
:10024C004CEA050C00FA0EF44FEA174A250CBCFBDD
:10025C00FAF81FFA87F90AFB18CC45EA0C4508FB9B
:10026C0009F3AB420AD9ED1908F1FF3280F0238172
:10027C00AB4240F22081A8F102083D44ED1AA4B231
:10028C00B5FBFAF00AFB105544EA054400FB09F9EA
:10029C00A14509D9E41900F1FF3380F00A81A14589
:1002AC0040F2078102383C44A4EB090440EA0840C0
:1002BC000021002E61D024FA0EF400233460736008
:1002CC00BDE8F0878B4207D9002E54D0002186E878
:1002DC0021000846BDE8F087B3FA83F1002940F00D
:1002EC008E80AB4202D3824200F2FA80841A65EB14
:1002FC0003050120AC46002E3FD086E81010BDE867
:10030C00F08712B90127B7FBF2F7B7FA87FEBEF1F7
:10031C00000F34D1EB1B3A0C1FFA87FC0121B3FB05
:10032C00F2F8250C02FB183345EA03450CFB08F3E5
:10033C00AB4207D9ED1908F1FF3002D2AB4200F203
:10034C00D1808046ED1AA3B2B5FBF2F002FB10553A
:10035C0043EA05440CFB00FCA44507D9E41900F161
:10036C00FF3302D2A44500F2B8801846A4EB0C046B
:10037C0040EA08409DE731463046BDE8F087CEF1B3
:10038C00200405FA0EF307FA0EF720FA04F83A0CDB
:10039C0025FA04F448EA0308B4FBF2F14FEA1845D5
:1003AC0002FB11441FFA87FC45EA044501FB0CF3E0
:1003BC00AB4200FA0EF409D9ED1901F1FF3080F0CF
:1003CC008A80AB4240F2878002393D44EB1A1FFA17
:1003DC0088F5B3FBF2F002FB103345EA034500FB52
:1003EC000CF3AB4207D9ED1900F1FF386FD2AB42D9
:1003FC006DD902383D44EB1A40EA01418FE7C1F157
:10040C00200722FA07F88B4005FA01F448EA0303A7
:10041C0020FA07FE4FEA134CFD404EEA040EB5FBE2
:10042C00FCF94FEA1E440CFB19551FFA83F844EAF9
:10043C00054509FB08F4AC4202FA01F200FA01FA94
:10044C0008D9ED1809F1FF3043D2AC4241D9A9F1DA
:10045C0002091D442D1B1FFA8EFEB5FBFCF00CFB94
:10046C0010554EEA054400FB08F8A04507D9E418DE
:10047C0000F1FF3529D2A04527D902381C4440EAA7
:10048C000940A4EB0804A0FB02894C45C6464D4626
:10049C0015D312D056B1BAEB0E0364EB050404FA73
:1004AC0007F7CB401F43CC40376074600021BDE898
:1004BC00F0871846F8E69046E0E6C245EAD2B8EB7B
:1004CC00020E69EB03050138E4E72846D7E74046FE
:1004DC0091E78146BEE7014678E702383C4445E7A0
:1004EC00084608E7A8F102083D442BE7704700BF17
:1004FC0008B50B4B1A6842F400721A601A6842F481
:10050C0080621A601A6842F480721A60032000F04C
:10051C002FF8002004F072F903F02EFF002008BD24
:10052C00003C0240034A044B11681B780B441360D7
:10053C00704700BFC000002000000020014B18686D
:10054C00704700BFC000002038B50446FFF7F6FF27
:10055C00631C1CBF054B1B78054618BFE418FFF73E
:10056C00EDFF401B8442FAD838BD00BF00000020CC
:10057C00074AD36823F4E0631B041B0C43F0BF63EE
:10058C00000243F4003300F4E0600343D36070478F
:10059C0000ED00E0174B30B5DC68C4F30224C4F165
:1005AC000703251D042B28BF0423062D4FF001053E
:1005BC0005FA03F303F1FF338CBF033C002419400D
:1005CC00A14005FA04F4013C2240002842EA010251
:1005DC004FEA0212ADBF00F1604000F00F00064B75
:1005EC0000F56140B5BFD2B2D2B21A5480F80023E4
:1005FC0030BD00BF00ED00E014ED00E0002808DB8A
:10060C004209012300F01F0003FA00F0014B43F8EC
:10061C002200704700E100E010B5044660B1437958
:10062C0003F0FF0213B9027103F0C2FE02236371DF
:10063C0001236371002010BD012010BD2DE9F04F86
:10064C0085B00B68DFF8C4816E4ADFF8C491019362
:10065C0000234FF0010E019C0EFA03FE0EEA040675
:10066C00B64540F0B6804C6824F01007022F16D126
:10067C004FEAD30A00EB8A0A03F0070BDAF8205092
:10068C004FEA8B0B4FF00F0C0CFA0BFC25EA0C0C01
:10069C000D6905FA0BF545EA0C05CAF820504FEA2E
:1006AC00430A0325D0F800B005FA0AF5ED4304F02F
:1006BC00030C0BEA050B0CFA0AFC013F4CEA0B0C81
:1006CC00012FC0F800C011D8876807EA050BCF6866
:1006DC0007FA0AFC4CEA0B078760476827EA0E0EFC
:1006EC00C4F300179F4047EA0E074760C7683D40B8
:1006FC008F6807FA0AF73D43C560E50069D54FF0EE
:10070C00000BCDF80CB0D8F844703F4D47F480473F
:10071C00C8F84470D8F8447007F480470397039FD7
:10072C0023F0030707F1804707F59C3703F0030C10
:10073C00D7F808A04FEA8C0C4FF00F0E0EFA0CFEF7
:10074C00A8422AEA0E0E4BD005F58065A84249D086
:10075C0005F58065A84247D005F58065A84245D0CF
:10076C0005F58065A84243D0484543D005F50065A2
:10077C00A84241D005F58065A8423FD005F58065BB
:10078C00A8423DD005F58065A84214BF0A2509256D
:10079C0005FA0CF545EA0E05BD601568F74314F42F
:1007AC00803F0CBF3D4035431560556814F4003F45
:1007BC000CBF3D4035435560956814F4801F0CBF49
:1007CC003D4035439560D568A40254BF3D40354348
:1007DC00D5600133102B7FF43CAF05B0BDE8F08F32
:1007EC005D46D5E70125D3E70225D1E70325CFE701
:1007FC000425CDE70525CBE70625C9E70725C7E77F
:10080C000825C5E7003C01400000024000380240CA
:10081C00001402400AB1816170470904FBE72DE91D
:10082C00FF47044690F8B8029DF830709DF834E00C
:10083C00BDF838C0012828D0282000FB0140012534
:10084C00002612F0800F84F8B85202F07F0908BF1E
:10085C00354680F83D6080F8383080F8391080F8E3
:10086C003FE080F83A9080F83B5080F83C70A0F85C
:10087C0040C0CDF808C08DE88040206802F05AF9DD
:10088C0084F8B86204B0BDE8F0870220FAE790F86B
:10089C00B832012B10B5044609D0012380F8B832C8
:1008AC00006802F0D1F9002084F8B80210BD0220D3
:1008BC0010BD2DE9F04107468AB0002841D090F8D0
:1008CC00B932046803F0FF021BB980F8B82204F0B7
:1008DC0063F8032387F8B932E36B3C4613F4807357
:1008EC0054F8100B08BF3B6101F0E0FF0FCC6D46D4
:1008FC000FC50FCC0FC594E8030085E8030007F182
:10090C0004083E4698E80E00386801F089FF56F856
:10091C00100B012101F0D0FF0FCE6D460FC50FCE8D
:10092C000FC594E8030085E8030098E80E003868CA
:10093C0002F080F8012387F8B93200200AB0BDE834
:10094C00F0810120FAE70000F0B5282404FB010433
:10095C009DF81470069EBDF81C5084F83B2084F85A
:10096C003F306FB90327022B84F842702BD0BB4267
:10097C0029D0012B31D1282303FB010300222AE0CB
:10098C004FF0020E84F842E0032B26D801A454F851
:10099C0023F000BFB109000883090008D30900083F
:1009AC00D3090008012F18D1BAB925B9282303FBA4
:1009BC00010383F85170282303FB010393F85120A2
:1009CC004AB1022207E0282303FB0103D2B993F8B2
:1009DC005140002CF5D183F84220282404FB01035C
:1009EC00002283F8391019465E649D6483F85C20FC
:1009FC00DA6483F85D203831027C0068BDE8F04091
:100A0C0002F086B993F85020DAE700BF2DE9F04FD9
:100A1C00066887B00446304601F0AEFF012840F06E
:100A2C00B480206801F0A4FF002800F0AE8020689C
:100A3C0001F09EFF870248BF2368206844BF4FF433
:100A4C0000125A6101F094FFC50248BF2368206868
:100A5C0044BF4FF480125A6101F08AFF400148BF35
:100A6C002368206844BF4FF080625A6101F080FF18
:100A7C00810748BF2368206844BF02225A6101F0F5
:100A8C0077FF820010D5D6F8403423F02E03C6F839
:100A9C004034204603F0D0FF0121206801F070FFA4
:100AAC0023684FF000525A61206801F061FFC301C6
:100ABC0042D52568D5F840340493D5F840340593D5
:100ACC00059B23F02E030593049B9F070DD5049BD8
:100ADC00D80706D5AB6923F00053AB61204603F071
:100AEC00A7FF059B43F002030593049B190719D537
:100AFC00059B43F008030593049B5A0750D5A16945
:100B0C00022945D1049B206803F4C023B3F5802F40
:100B1C0018BF012101F034FF204603F092FF20465C
:100B2C0003F086FF049B9B0642BF059B43F020030A
:100B3C000593059BC5F84034206801F019FF0707A1
:100B4C0005D5204603F070FF236808225A612068FF
:100B5C0001F00EFF850112D5206802F070F84FF0FD
:100B6C00000A019006F5A06828274FF00209D34629
:100B7C00A3689A4523D323684FF000725A6120680A
:100B8C0001F0F6FEC30600F1208207B0BDE8F08F3D
:100B9C00E368012B04BF4EF66022C5F80424BBE7C2
:100BAC00204603F052FFD5F84034226823F02E0380
:100BBC00C5F84034936943F000539361B2E7019A4E
:100BCC000AF00F0322FA03F3D80740F18A80D8F811
:100BDC000030206813F4004F5FFA8AF500F00481AE
:100BEC006A0100F5A063D618B168490713D5042132
:100BFC00B160F16841F00201F160B168890542D53C
:100C0C00F368206843F00203F360294602F01CF8F5
:100C1C004FF40073C7E0B168890602D52021B1609A
:100C2C00EBE7B168090715D5F168039341F00201B0
:100C3C00F16007FB05414FF0050E81F85DE01021D6
:100C4C00B1600821B1602946029201F0FDFF029AC1
:100C5C00039BD2E7B1684905CFD5F168039341F006
:100C6C000201F1602946029201F0EEFF1021B16001
:100C7C0007FB0541082081F85D004FF48061B160ED
:100C8C00039B029AB9E7B168C8073DD5216949B100
:100C9C0007FB054E3069DEF84810C0F31200091A44
:100CAC00CEF84C1007FB054E01208EF85D00CEF8F7
:100CBC0058B0B0609EF83F1011F0FD0F16D1F368DC
:100CCC00206843F00203F360294601F0BDFF1023B6
:100CDC00B36007FB054595F8503083F0010385F8A8
:100CEC0050300AF1010A08F1200841E70329F0D13C
:100CFC00D15841F00051D1508EF85C000246294683
:100D0C00204603F09DFEE4E7B168890736D5F1680B
:100D1C0007FB054021F00201F16090F85D100129FC
:100D2C000CD180F85C1007FB0543C6F8089093F8CB
:100D3C005C202946204603F083FED2E70529F0D03B
:100D4C00062901D0082914D107FB0541886D013013
:100D5C000328886583BF0420C1F858B081F85C0073
:100D6C0081F85C90D15821F0804141F00041D15084
:100D7C00D9E70329D7D180F85C90F3E7B16811F07B
:100D8C00800112D0F368206843F00203F36007FB84
:100D9C00054329469A6D01329A65062283F85D2037
:100DAC0001F052FF8023B3609BE7B368DA0698D555
:100DBC0007FB054292F83F30032B0AD19165F3688B
:100DCC00206843F00203F360294601F03DFF102335
:100DDC00E9E713F0FD03FAD193652369002BF6D1F3
:100DEC00032382F85D30EAE7690100F5A0628E18F2
:100DFC00B36813F0040E06D00423B360F36843F019
:100E0C000203F3606DE7B36813F0200314D02023C2
:100E1C00B36007FB054393F83D20012A7FF461AFD3
:100E2C0083F83DE083F85C90F36843F00203F360D1
:100E3C00294601F009FF54E7D6F808E01EF0400FF0
:100E4C0011D007FB0542042182F85D10012182F8C4
:100E5C003D109365F36843F00203F360294601F0FB
:100E6C00F3FE40239FE7B36813F4007E05D0F368CC
:100E7C0043F00203F3602946C8E6B368DB0711D5DB
:100E8C00F26807FB054342F00202C3F858E029461A
:100E9C00F260029301F0D8FE029B0122B26083F84B
:100EAC005D201EE7B3681B070ED50823B360F368FB
:100EBC0043F00203F360294601F0C6FE07FB05452B
:100ECC00052385F85D300CE7B368DB0615D507FB09
:100EDC000543032283F85D2093F83D20C3F858B0F6
:100EEC002AB993F83C2012B9012283F83D20F3680B
:100EFC0043F00203F360294667E7B3681B060CD581
:100F0C00F36843F00203F360294607FB054501F043
:100F1C009BFE062385F85D3044E7B3685B050FD56F
:100F2C00F36843F00203F360294601F08DFE1023B1
:100F3C00B3604FF48063B36007FB05450823C0E73B
:100F4C00B36898077FF5CDAEF36807FB054023F037
:100F5C000203F36090F85D30012B0ED180F85C3009
:100F6C0090F83F30023B012B3FF6DDAE90F851304C
:100F7C0083F0010380F85130D5E6032B02D180F8C1
:100F8C005C90D0E6042BFAD0052B02D180F85C30B3
:100F9C00C9E6062B02D0082B7FF4C5AE07FB054033
:100FAC00836D0133032B836584BF042380F85C308D
:100FBC008B5888BFC0F858B023F0804343F00043EF
:100FCC0098BF80F85C908B50ADE62668B36923F02F
:100FDC001003B361356AC5F34342022A29D1C5F324
:100FEC000A18B8F1000F24D005F00F05282707FBCD
:100FFC000547796CE9B14246304601F0ABFC7B6C9D
:10100C0043447B64FB6C4344FB6406F5A0666B01B4
:10101C009A1911690A4A0A405AB19A5922F0804227
:10102C0042F000429A5197F8503083F0010387F850
:10103C0050302268936943F010039361A5E500BF1B
:10104C000000F81F38B590F8B832012B04460DD0CB
:10105C00012580F8B852006801F022FC294620686E
:10106C0001F0C8FC002084F8B80238BD022038BD5D
:10107C0090F8B832012B10B5044609D0012380F842
:10108C00B832006801F0F6FE002084F8B80210BDFA
:10109C00022010BD006801F08FBC282303FB010166
:1010AC0091F85C007047282303FB0101C86C704762
:1010BC00006801F03ABD006801F02CBD70B5044623
:1010CC0008B9012070BD90F83D3003F0FF021BB948
:1010DC0080F83C2003F084F92268242384F83D3006
:1010EC00136823F00103136000F0B0FC6568414BFA
:1010FC009D424DD8404B9842E3D922683F495368F2
:10110C00B0FBF1F123F03F030B435360136A23F060
:10111C003F03013119431162D169364B21F44F4120
:10112C009D4221F0FF0100F1FF3048D86D00B0FB6B
:10113C00F5F00130C0F30B03042B38BF04230B4331
:10114C00D3611168206AE36921F0C00103430B43AA
:10115C0013609168E068236921F40341034321F093
:10116C00FF010B439360D168A069636921F0FF0113
:10117C0003430B43D360136843F001031360002057
:10118C002023206484F83D30206384F83E0070BD39
:10119C001B4B984295D92268184E5368B0FBF6F653
:1011AC0023F03F0333435360136A4FF4967171433A
:1011BC0023F03F034FF47A76B1FBF6F1A9E7A3686D
:1011CC0053B905EB4503B0FBF3F0431CC3F30B031E
:1011DC006BB143F40043B2E719236B43B0FBF3F05C
:1011EC00431CC3F30B0313B143F44043A7E70123A0
:1011FC00A5E700BFA08601007F841E0040420F00BF
:10120C00FF083D0090F83D20D2B2202A10B516D12F
:10121C00242380F83D3003681C6824F001041C6012
:10122C005C6A24F010045C625C6A214359621968A0
:10123C0041F00101196080F83D20002010BD022012
:10124C0010BD30B590F83D40E4B2202C16D10268A8
:10125C00242380F83D30156825F001051560556A8A
:10126C004FF6F0732B400B439BB25362136843F061
:10127C000103136080F83D40002030BD022030BDDA
:10128C002DE9F043D20104684F68E568D1F800E01D
:10129C00D1F818908432A3180EF10106586800F4A6
:1012AC0070405860E068C5F30B45C0F30B403D44FB
:1012BC00304440EA05405860E068CD68C0F30A004D
:1012CC000544986800F470409860E6688868C6F336
:1012DC000A060130304440EA0540986018690E69EE
:1012EC0020F0070018614FF0000C1E619D6991F809
:1012FC00320091F83180C3F818C091F8305045EAAB
:10130C00096545EA082545EA00459D61586920F0C4
:10131C00FF00586148695861D86920F4E06020F0FA
:10132C000700D861086ACD690543DD61986A486A8F
:10133C00C3F828C098621EB3012E23D0B01E022819
:10134C0022D9072E0CBF02200120DD6A05F0E02512
:10135C00DD628D6AC96AA7EB0E07454378430330FB
:10136C0040EA0540D862186B20F4FF6020F00700BB
:10137C0018631963A35843F00103A350BDE8F0832D
:10138C000420E2E70320E0E70220DEE738B504465C
:10139C00002863D090F8A13003F0FF021BB980F84D
:1013AC00A02003F071F8022384F8A1302368A06810
:1013BC009A6922F070429A61626899690243E06806
:1013CC000243206902430A439A619A68244960697E
:1013DC000A409A609A6842EA0042A06902439A6005
:1013EC00DA68E0690A40DA60DA6842EA0042206AA8
:1013FC000243DA601A69606A0A401A611A6942EAA1
:10140C000042A06A02431A615A69114059615A6933
:10141C00E16A42EA0142216B0A435A61D96A94F8A3
:10142C00360094F8355001F07F41D962D96A94F8AE
:10143C0034200A4342EA052242EA0042DA625A6B3D
:10144C0042F006025A639A6942F001029A61002046
:10145C000123C4F8A40084F8A13038BD012038BDA4
:10146C0000F800F0704770477047036870B59E6BCA
:10147C005D6B7207044614D5690712D55A6B22F0BE
:10148C0004025A630422DA63D0F8A43043F0010357
:10149C00C0F8A430002380F8A12080F8A030FFF71A
:1014AC00E1FFB20716D5AB0714D523685A6B22F0AF
:1014BC0002025A630222DA63D4F8A4301343C4F84C
:1014CC00A430042384F8A130002384F8A0302046F3
:1014DC00FFF7C8FFF00710D5E9070ED523685A6B44
:1014EC0022F001025A630122DA63002384F8A1205E
:1014FC0084F8A0302046FFF7B6FF320711D52B0732
:10150C000FD523685A6B22F008025A630822DA635B
:10151C00012384F8A130002384F8A0302046FFF783
:10152C00A3FF70BDF8B590F8A030012B06468E468F
:10153C0094464FF002001DD034240D4686F8A100CD
:10154C0004FB02640FCD0127383486F8A0700FC459
:10155C000FCD0FC40FCD0FC42B68236030466246ED
:10156C007146FFF78DFE336800205F6286F8A1702C
:10157C0086F8A000F8BD90F8A030012B70B54FF0A4
:10158C000203044615D080F8A13034235343C61807
:10159C00012580F8A050F16503F138010144FFF7F3
:1015AC006FFE236800205D6284F8A15084F8A000CF
:1015BC0070BD184670BD00002DE9F341044618B902
:1015CC00012002B0BDE8F0810368DD0710D4236868
:1015DC00980758D423681A0700F19A8023685B0790
:1015EC0000F1B880A269002A40F019810020E8E7D8
:1015FC00A64B9A6802F00C02042A07D09A6802F0F3
:10160C000C02082A0AD15B68590207D59F4B1B684C
:10161C009A03DCD56368002BD9D1D1E763689B4D65
:10162C00B3F5803F11D12B6843F480332B60FEF768
:10163C0085FF964D06462B689B03C8D4FEF77EFFAC
:10164C00801B6428F7D90320BBE7B3F5A02F04D186
:10165C002B6843F480232B60E5E72A6822F4803260
:10166C002A602A6822F480222A60002BDFD1FEF740
:10167C0065FF06462B689F03A9D5FEF75FFF801B0D
:10168C006428F7D9DFE7814B9A6812F00C0F07D06A
:10169C009A6802F00C02082A11D15B685E020ED423
:1016AC007A4B1A68950702D5E268012A88D11A6824
:1016BC00216922F0F80242EAC1021A608AE7E26864
:1016CC00734BB2B101221A60FEF738FF6F4D06461C
:1016DC002B68980707D52B68226923F0F80343EA97
:1016EC00C2032B6076E7FEF729FF801B0228EFD997
:1016FC00A9E71A60FEF722FF644D06462B6899078E
:10170C007FF568AFFEF71AFF801B0228F6D99AE71F
:10171C006269604B7AB101221A60FEF70FFF5B4DD4
:10172C0006466B6F9F073FF559AFFEF707FF801B0F
:10173C000228F6D987E71A60FEF700FF534D0646DC
:10174C006B6F98077FF54AAFFEF7F8FE801B0228F7
:10175C00F6D978E74D4B1A6C12F0805228D10192D1
:10176C001A6C42F080521A641B6C03F08053019384
:10177C00019B0126484D2B68D9051BD5A368434D09
:10178C00012B27D12B6F43F001032B67FEF7D6FEFD
:10179C003E4D074641F288382B6F9B0739D5002EFA
:1017AC003FF420AF394A136C23F08053136419E7CC
:1017BC000026DFE72B6843F480732B60FEF7BEFE38
:1017CC0007462B68DA05D9D4FEF7B8FEC01B0228F1
:1017DC00F7D938E7052B04D12B6F43F004032B67A3
:1017EC00D0E72A6F22F001022A672A6F22F0040246
:1017FC002A67002BCAD1FEF7A1FE41F288380746B2
:10180C002B6F9807CBD5FEF799FEC01B4045F7D937
:10181C0019E7FEF793FEC01B4045BDD913E71B4DDE
:10182C00AB6803F00C03082B3FF4CAAE1B4E00232D
:10183C00022A336034D1FEF781FE07462B689901EA
:10184C001ED4226AE3691343626A43EA8213E26A92
:10185C0043EA0263A26A0D4C5208013A43EA02437E
:10186C006B6001233360FEF769FE054623689A011D
:10187C003FF5BCAEFEF762FE401B0228F6D9E2E64D
:10188C00FEF75CFEC01B0228D8D9DCE6003802400B
:10189C0000004742800E4742007000406000474203
:1018AC00FEF74CFE04462B689B017FF59FAEFEF7BE
:1018BC0045FE001B0228F6D9C5E600BF134908B542
:1018CC008B6803F00C03042B03D0082B03D01048B7
:1018DC0008BD104808BD4A684B68496813F480037A
:1018EC0014BF0C480A48C1F3881118BF002302F03A
:1018FC003F02A1FB0001FEF773FC044B5B68C3F3D2
:10190C00014301335B00B0FBF3F008BD003802402B
:10191C000024F40000127A002DE9F0410D46044633
:10192C0010B90120BDE8F081444B1A6802F00F0297
:10193C008A4228D321688F072DD4C80740D43F4B47
:10194C001A6802F00F02954266D3226851076CD4D4
:10195C00130707D53A4A2169936823F4604343EA95
:10196C00C1039360FFF7AAFF354B364A9B68C3F35C
:10197C000313D35CD840344B1860002002F03EFFB8
:10198C000020BDE8F081CAB21A701B6803F00F0387
:10199C009942C6D1CEE72A4B11F0040F1EBF9A68AC
:1019AC0042F4E0529A600E0742BF9A6842F46042D9
:1019BC009A609A68A06822F0F00202439A60BCE731
:1019CC0062681F4B012A1DD11B6813F4003FA8D07D
:1019DC001B4EB36823F003031343B360FEF7AEFD55
:1019EC0041F288380746B368626803F00C03B3EB26
:1019FC00820FA4D0FEF7A2FDC01B4045F3D90320F3
:101A0C00BDE8F081911E01291B6802D813F0007FFC
:101A1C00DDE713F0020FDAE7EAB21A701B6803F085
:101A2C000F039D427FF47DAF8FE70549E0688B681B
:101A3C0023F4E05303438B608AE700BF003C024071
:101A4C00003802409C4E000824000020044B054A3C
:101A5C009B68C3F38223D35C034A1068D840704759
:101A6C0000380240AC4E000824000020044B054A0C
:101A7C009B68C3F34233D35C034A1068D840704769
:101A8C0000380240AC4E0008240000200F230360F5
:101A9C000B4B9A6802F0030242609A6802F0F00263
:101AAC0082609A6802F4E052C2609B68DB0803F41F
:101ABC00E0530361034B1B6803F00F030B6070478B
:101ACC0000380240003C02400368F7B59A07044610
:101ADC0040F08880236813F00C0F44D0804D814E69
:101AEC0000232B60FEF72AFD074633689B0000F1AC
:101AFC00BD8021684F0715D56369D6F88820206909
:101B0C001B0602F0E04243EA80131343C6F8883008
:101B1C00D6F88C30226A23F4F853013A43EA0223B4
:101B2C00C6F88C300E0714D56E4AA369D2F888100B
:101B3C0020691B0701F0706143EA80130B43C2F864
:101B4C008830D2F88C30616A23F440330B43C2F8EE
:101B5C008C3001232B60FEF7F1FC624D06462B689E
:101B6C00980040F18A8023689A0631D500230193AE
:101B7C005C4B5D4D1A6C42F080521A641B6C03F086
:101B8C0080530193019B2B6843F480732B60FEF709
:101B9C00D5FC06462B68D90576D5524D2B6F13F420
:101BAC00407377D1A36A03F44072B2F5407F4D4A7B
:101BBC0040F09180916823F0704021F4F81120F4EA
:101BCC00407001439160116FC3F30B030B43136718
:101BDC00206810F010001FBF444B94F82C201A60A2
:101BEC00002041E0424D3F4E00232B60FEF7A6FC47
:101BFC00074633681B0131D42268D70706D5A36882
:101C0C0061681B0743EA8113C6F88430900715D529
:101C1C00344AE368D2F8841060681B0601F0E04196
:101C2C0043EA80130B43C2F88430D2F88C10E3697A
:101C3C0021F01F01013B0B43C2F88C3001232B60B8
:101C4C00FEF77CFC274D06462B6819013FF542AF89
:101C5C00FEF774FC801B0228F6D904E0FEF76EFC3C
:101C6C00C01B0228C5D9032003B0F0BDFEF766FCEB
:101C7C00C01B02287FF639AFF5E7FEF75FFC801B2F
:101C8C0002287FF66CAFEEE7FEF758FC801B0228AB
:101C9C0080D9E8E7A26A02F44072934282D02B6F9B
:101CAC00144A0121116023F44073002111602B6749
:101CBC002B6FDA077FF576AFFEF740FC41F28837E1
:101CCC0006462B6F9B073FF56DAFFEF737FC801B6D
:101CDC00B842F6D9C7E7916821F4F81172E700BF52
:101CEC00700047420038024000700040E01147424B
:101CFC0068004742400E474238B50D460446C8B10D
:101D0C0090F82C3003F0FF021BB980F82D2002F064
:101D1C0005FD022384F82C30211D206800F0E0FC26
:101D2C0062682068294600F01AFD012384F82C30E3
:101D3C00002038BD012038BDF8B504460E461546C6
:101D4C001F4621688A6836EA020301D00020F8BDDC
:101D5C006B1CF7D0FEF7F2FBC01B8542F1D8236851
:101D6C005A6822F0E0025A606268B2F5827F0AD1AA
:101D7C00A268B2F5004F02D0B2F5806F03D11A6899
:101D8C0022F040021A60A26AB2F5005F07D11A680D
:101D9C0022F400521A601A6842F400521A600123AD
:101DAC0084F85130002384F850300320F8BD000033
:101DBC0073B51346134A144E15684268B5FBF6F614
:101DCC004FF47A757543B2F5827F044601950DD1B7
:101DDC000A468021FFF7B0FF10B9002002B070BD99
:101DEC00636D43F0200363650320F7E7019B002B31
:101DFC00F3D0019B013B019323689B681B06F5D430
:101E0C00EBE700BF2400002000366E0110B504463D
:101E1C00002836D00023836290F8513003F0FF0283
:101E2C001BB980F8502002F0F5FB2168A068A2696C
:101E3C00022384F851300B6823F040030B60636875
:101E4C000343E06803432069034360690343E0698B
:101E5C000343206A0343A06A034302F40070034364
:101E6C000B60120C636A02F004021A434A60CB69DD
:101E7C0023F40063CB6100200123606584F85130AA
:101E8C0010BD012010BD2DE9F7431E4690F85030CF
:101E9C000A9F012B04460D46914600F0E280012377
:101EAC0080F85030FEF74AFB94F851306168DBB291
:101EBC00012B80460AD0B1F5827F40F0D080A0681B
:101ECC00002840F0CC80042B40F0C980002D00F09D
:101EDC00C480B9F1000F00F0C080002E00F0BD806E
:101EEC0094F85130C4F83890042B1CBF052384F8A7
:101EFC00513000236365236463642368E687E686B8
:101F0C001A68A687500658BF1A68256358BF42F056
:101F1C004002A68658BF1A60E268B2F5006F58D12D
:101F2C0009B1012E07D135F8022BDA60E38E256357
:101F3C00013B9BB2E3860125E38E9BB2ABB9E38FE9
:101F4C009BB293B9424639462046FFF731FF002831
:101F5C0040F08180A368002B32D123680190DA68AD
:101F6C0001929B680193019B2AE022689368990770
:101F7C000DD5E38E9BB253B14DB1236B33F8021BDD
:101F8C00D1602363E38E013B9BB2E386002593680B
:101F9C00DB070CD5E38F9BB24BB1A36BD26823F854
:101FAC00022BA363E38F013B9BB2E3870125FEF772
:101FBC00C5FAA0EB08008742BED87E1CBCD003201B
:101FCC00012384F85130002384F8503003B0BDE86D
:101FDC00F08309B1012E08D12A781A73236B0133CF
:101FEC002363E38E013B9BB2E3860125E38E9BB218
:101FFC001BB9E38F9BB2002BA4D02268936898077F
:10200C000ED5E38E9BB25BB155B1236B1B7813736A
:10201C00236B01332363E38E013B9BB2E3860025E4
:10202C0022689368D9070DD5E38F9BB253B1A36B8C
:10203C00D2681A70A36B0133A363E38F013B9BB28D
:10204C00E3870125FEF77AFAA0EB08008742CDD88A
:10205C007B1CCBD0B3E7202363650120B0E70220C3
:10206C00AEE70220B2E70368DA6842F00102DA60F8
:10207C009A6802F00702062A1EBF1A6842F0010293
:10208C001A600020704770477047704770470368AC
:10209C001A69910710B504460ED5DA6892070BD56C
:1020AC006FF002021A619B6901229B07027777D0BD
:1020BC00FFF7EAFF0023237723681A69500710D52E
:1020CC00DA6851070DD56FF004021A619B69022280
:1020DC0013F4407F2277204668D0FFF7D5FF00230A
:1020EC00237723681A6912070FD5DA6810070CD505
:1020FC006FF008021A61DB690422990722772046E7
:10210C005AD0FFF7C1FF0023237723681A69D20640
:10211C0010D5DA68D0060DD56FF010021A61DB69A4
:10212C00082213F4407F227720464BD0FFF7ACFFF8
:10213C000023237723681A69D10708D5DA68D207F8
:10214C0005D56FF001021A61204602F009F92368E7
:10215C001A69100608D5DA68110605D56FF08002E9
:10216C001A61204600F073F923681A69520608D5E3
:10217C00DA68500605D56FF040021A612046FFF769
:10218C0085FF23681A69910622D5DA6892061FD555
:10219C006FF0200220461A61BDE8104000F056B9DD
:1021AC00FFF771FF2046FFF770FF83E7FFF76BFF28
:1021BC002046FFF76AFF92E7FFF765FF2046FFF71F
:1021CC0064FFA0E7FFF75FFF2046FFF75EFFAFE776
:1021DC0010BD0000304A0368904212D0B0F1804F1D
:1021EC000FD0A2F57C4290420BD002F58062904257
:1021FC0007D002F58062904203D002F578429042FB
:10220C0019D14A6823F070031343234A904229D012
:10221C00B0F1804F26D0A2F57C42904222D002F53C
:10222C00806290421ED002F5806290421AD002F574
:10223C007842904216D0194A904213D002F580622F
:10224C0090420FD002F5806290420BD0A2F59832EA
:10225C00904207D002F58062904203D002F5806272
:10226C00904203D1CA6823F4407313434A6923F0A4
:10227C008003134303608B68C3620B688362064B55
:10228C00984203D003F58063984201D10B69036334
:10229C0001234361704700BF000001400040014032
:1022AC0010B50446A0B190F83D3003F0FF021BB905
:1022BC0080F83C2002F0E2F9022384F83D302068DB
:1022CC00211DFFF787FF012384F83D30002010BD4E
:1022DC00012010BD10B584680A4324F47F4442EAFF
:1022EC0003232343836010BD90F83C30012B70B561
:1022FC0004464FF0020019D084F83D0020680123F9
:10230C0084F83C30836823F47F4323F077038360A5
:10231C000B68402B65D015D8102B0CD007D853B1B7
:10232C000123002084F83D3084F83C0070BD202B44
:10233C0001D0302BF4D1826843F0070322F07002F5
:10234C0013431AE0602B34D019D8502BE8D14A68CB
:10235C00CE68016A056A25F001050562836921F0E2
:10236C000A0123F0F00343EA06130A438361026275
:10237C00836823F0700343F057038360D0E7702B1E
:10238C000CD0B3F5005FCBD1CB684A688968FFF7F6
:10239C00A1FF2268936843F4804308E0CB684A6845
:1023AC008968FFF797FF2268936843F0770393607F
:1023BC00B6E74D68CE68016A21F0100101628269AE
:1023CC00036A22F4704223F0A00343EA051342EAA5
:1023DC00063282610362836823F0700343F0670363
:1023EC00CBE74A68CE68016A056A25F001050562EB
:1023FC00836921F00A0123F0F00343EA06130A4330
:10240C0083610262836823F0700343F04703B4E7EF
:10241C0090F83C30012B30B54FF0020314D0046817
:10242C0080F83D306268A3680D68496822F070023C
:10243C0023F080030B432A436260A360012380F8DE
:10244C003D30002380F83C30184630BD7047704753
:10245C002DE9F0470668C2683369C16923F440531B
:10246C0013433361044683680069F268034360696F
:10247C0022F41642034322F00C020B431343F36085
:10248C007369A26923F440731343B1F5004F736170
:10249C007A4B7CD19E4203D003F580639E4244D19B
:1024AC00FFF7E4FA192505FB00F360684FF06409A7
:1024BC004000B3FBF0F3B3FBF9F34FEA0318FFF75B
:1024CC00D5FA636868435B00B0FBF3F7FFF7CEFA0D
:1024DC00636868435B00B0FBF3F3B3FBF9F309FBF0
:1024EC001373DB003233B3FBF9F35B0003F4F877BF
:1024FC00FFF7BCFA626868435200B0FBF2FAFFF7D0
:10250C00B5FA636868435B00B0FBF3F3B3FBF9F314
:10251C0009FB13A3DB003233B3FBF9F303F007031E
:10252C0043443B44B360BDE8F087FFF78FFA1925AD
:10253C0005FB00F360684FF064094000B3FBF0F357
:10254C00B3FBF9F34FEA0318FFF780FA63686843AB
:10255C005B00B0FBF3F7FFF779FA636868435B0045
:10256C00B0FBF3F3B3FBF9F309FB1373DB0032336A
:10257C00B3FBF9F35B0003F4F877FFF767FA6268D3
:10258C0068435200B0FBF2FAFFF760FAB9E79E42DB
:10259C0002D03B4B9E4240D1FFF768FA6768192581
:1025AC004FF0640905FB00F3BF00B3FBF7F3B3FB7B
:1025BC00F9F31F01FFF75AFA636868439B00B0FBFD
:1025CC00F3F8FFF753FA636868439B00B0FBF3F32F
:1025DC00B3FBF9F309FB13831B013233B3FBF9F3A0
:1025EC0003F0F008FFF742FA626868439200B0FB10
:1025FC00F2FAFFF73BFA636868439B00B0FBF3F316
:10260C00B3FBF9F309FB13A31B013233B3FBF9F34F
:10261C0003F00F0343EA080383E7FFF717FA676831
:10262C0019254FF0640905FB00F3BF00B3FBF7F36A
:10263C00B3FBF9F31F01FFF709FA636868439B00CA
:10264C00B0FBF3F8FFF702FA636868439B00B0FB3A
:10265C00F3F3B3FBF9F309FB13831B013233B3FB25
:10266C00F9F303F0F008FFF7F1F9626868439200A0
:10267C00B0FBF2FAFFF7EAF9BDE700BF001001402A
:10268C000014014010B5044640B390F8393003F003
:10269C00FF021BB980F8382002F008F822682423C6
:1026AC0084F83930D36823F40053D3602046FFF705
:1026BC00CFFE23681A6922F490421A615A6922F0FB
:1026CC002A025A61DA6842F40052DA6000202023B0
:1026DC00E06384F8393084F83A3010BD012010BD25
:1026EC000B684A68D1F810C0012B2DE9F043036840
:1026FC00D1F80890D1F80C804D698C69D1F81CE0A8
:10270C000F6A4E6A14D023F4FF4323F07F031A435D
:10271C0042EA090242EA080242EA0C032B43234331
:10272C0043EA0E033B43334303600020BDE8F083D0
:10273C00416821F4FF4121F07F0123F4F8430A435F
:10274C0043EA0E0342EA09023B4342EA08021E43F3
:10275C0042EA0C032B43234306604360E5E7012A5E
:10276C00F0B5D1F80CC08F680D694E6991E808403E
:10277C0089691BD082680EF1FF3E02F07042013B6A
:10278C0042EA0E121A437B1E42EA03230CF1FF3C71
:10279C0043EA0C33013D43EA0543013E43EA065349
:1027AC00013943EA016383600020F0BD8468C2688C
:1027BC000EF1FF3E02F07042013B42EA0E121A4348
:1027CC0024F470047B1E42EA03220CF1FF3C24F437
:1027DC0070446B1E44EA0C34013E42EA0343013957
:1027EC0044EA065643EA01638660C360DCE70000F6
:1027FC000A4B013B01D1032070470269002AF8DA29
:10280C000369064A43F001030361013AF3D00369FB
:10281C0013F00103F9D11846704700BF410D0300B6
:10282C0084B038B505AD85E80E000A9B012B044633
:10283C0025D1836B23F480338363C36823F484032F
:10284C0023F04003C360C36823F44013C360119B9F
:10285C00012B02BFC36843F48013C360FFF7C8FFAA
:10286C00089B012B07D1A36843F00603A360A36860
:10287C0043F02003A360BDE8384004B07047C36840
:10288C0043F04003C360FFF7B3FF0E9B23B9A36B68
:10289C0043F48033A363E3E7A36B23F48033F9E7BA
:1028AC00836843F00103836000207047836823F042
:1028BC00010383600020704708B5C368012923F029
:1028CC00C043C36008D1C36843F00053C3603220D7
:1028DC00FDF73AFE002008BD19B9C36843F08043E8
:1028EC00F4E7012008BD0000890141F02001064AEF
:1028FC000161013A05D0036913F02003F9D11846A0
:10290C0070470320704700BF410D03001023064A97
:10291C000361013A05D0036913F01003F9D118468D
:10292C0070470320704700BF410D030010B59DF8A0
:10293C0008404CB9033300EB023023F0030300F5DD
:10294C0080500B44994201D1002010BD51F8042B4A
:10295C000260F7E7033222F003020A4400F58050CC
:10296C00914201D108467047036841F8043BF7E7F0
:10297C004269806910407047406900F0010070475F
:10298C00D0F8003423F0030310B5C0F80034D0F8AD
:10299C00004401F003032343012900F58062C0F8D1
:1029AC00003404D14BF680335360002010BD022953
:1029BC00FBD141F27073F7E737B500250195D0F8DC
:1029CC0040340193019B23F02E030193019B43F4AC
:1029DC0080730446C0F840346420FDF7B5FD019BBC
:1029EC0023F48073C4F840340A20FDF7ADFD28466B
:1029FC0003B030BD82B000230193D0F84034019372
:102A0C00019B23F02E030193019BDA0406D40129C8
:102A1C0002BF019B43F48053C0F84034019BDB049C
:102A2C0005D521B9019B23F48053C0F84034002014
:102A3C0002B0704784B038B5044605A880E80E0093
:102A4C000023C4F8003EA36B43F40013A363A36BF1
:102A5C0023F40023A363A36B23F48023A363E36B0E
:102A6C00DA053FD5079B032BD4F800343CD143F057
:102A7C000403C4F8003410212046FFF735FF20462C
:102A8C00FFF744FF0023069904F5A0624FF0FF30D6
:102A9C001D468B422BD101212046FFF7ABFFC820EE
:102AAC00FDF752FD0023A3614FF0FF336361E36B2D
:102ABC00DB0521D54FF40073636203F18073A362CD
:102ACC00114BC4F80031089B1BB9A36943F01003E8
:102ADC00A361A2690D4B1343A361BDE838400020EC
:102AEC0004B07047D4F8003423F00403C1E79060BD
:102AFC000133D5602032CCE78023636203F5C00339
:102B0C00A362034BDDE700BF0003E000080020A335
:102B1C00E000400082B000230193D0F840340193D0
:102B2C000198C0F3414002B0704700F580608068A6
:102B3C0080B270472DE9F04100EB411707F5A06416
:102B4C009DF81C6005464FF0FF30A0604FFA82F8EC
:102B5C0005F5806C01F00F0E032E6CD8DFE806F043
:102B6C000261024C40F29D41B8F1000FE16003DAC2
:102B7C00E16841F4807105E0E96BC90542D5E16873
:102B8C0041F06001E1600020DCF81840012101FAFD
:102B9C000EF12143CCF81810A969B8F1000F41F0DF
:102BAC000071A961B4BF4FF400440024BDF820505B
:102BBC009DF818109B0503F0FE53C5F30A05D202CD
:102BCC0002F4F0422B431343B20402F440220229D4
:102BDC0043EA02030CBF4FF40031002123430B43A3
:102BEC00032EC7F8003528D1D7F8003543F0005331
:102BFC00C7F80035BDE8F08140F29D61B8F1000FD7
:102C0C00E160B5DBDCF81800012101FA0EF101439B
:102C1C00CCF81810A969002041F00071A961044694
:102C2C00C4E740F22521B8F1000FE160EADAE1686F
:102C3C0041F4C071A6E70120A6E7BDE8F08100F5DC
:102C4C008060406980B2704700EB411101F5A062D1
:102C5C00D1F8003513F4802FD1F8003543F08043C0
:102C6C00C1F800351ED1C36A13F47F0FD1F80035BB
:102C7C0037D123F00043C1F80035D1F8003543F0CB
:102C8C000043C1F80035D1F8003523F40043C1F8F6
:102C9C00003540F2E933013B02D011680029FADB20
:102CAC0000207047D0F8103413F47F0FD1F80035A2
:102CBC0017D123F00043C1F80035D1F8003543F0AB
:102CCC000043C1F80035D1F8003523F40043C1F8B6
:102CDC00003540F2E933013BE2D011680029FADB00
:102CEC00DEE743F00043C1F80035D9E700EB4111B2
:102CFC00064AC1F81025D1F8003523F0804343F083
:102D0C000043C1F800350020704700BF0000088068
:102D1C002DE9F341C36BDB05164604464A7817D5FB
:102D2C000D79ADB94EB94B79012B11D11146FFF785
:102D3C00DDFF002002B0BDE8F081012E08D100EBD0
:102D4C004213D3F80C0520F06000C3F80C054D714C
:102D5C000869002866D00B8901381844B0FBF3F0E1
:102D6C0080B2B0F5807F03D91B020B614FF48070E9
:102D7C00CF7817B10B8943430B6191F80AE00B69CB
:102D8C004FEA4E7EC3F312080EF0C04E4EEA080E08
:102D9C00DFF8DC8004EB421508EAC0404EEA000084
:102DAC00C5F8100516B1C868C5F8140504F5806E91
:102DBC00DEF80800D5F800C52CF0005CC5F800C59D
:102DCC00C043D5F800C5400700F0005040EA0C00A5
:102DDC00C5F800052548D5F800C5C0F800C0D0F8E6
:102DEC0000C02CF0804CC0F800C0D0F800C0DFB19F
:102DFC004CF4004CC0F800C0D0F800C04CF0004CB3
:102E0C00C0F800C00068C5F80005002E91D1002F55
:102E1C008FD1002B8DD0C879032813D8DFE800F0B0
:102E2C00071A071A0120A3E72CF4004CE2E7E06A2A
:102E3C00DD1CC5F38F0580B2854203D9A06940F033
:102E4C002000A061002000909BB2C9682046FFF7CB
:102E5C006DFD6EE7DEF81000DD1CC5F38F0580B24A
:102E6C008542EFD9A06940F08060EAE7A800002015
:102E7C000000F81F836823F0010310B510210446ED
:102E8C008360FFF731FD2046FFF740FD04F5A0639A
:102E9C0004F5E0601A46116821F0802141F0804170
:102EAC0042F8201B9042F6D10020196821F4004111
:102EBC0041F0404119600130B0F57A7F02D81968B1
:102ECC000029F8DB20339A42EFD14FF0FF33C4F8DE
:102EDC0014346361A36843F00103A360002010BDA8
:102EEC000020704738B5D0F87833DC692178054676
:102EFC0039B100F017FE2178284600F02FFE002390
:102F0C002370217B41B1284600F00CFE217B284622
:102F1C0000F024FE00232373617B41B1284600F0AE
:102F2C0001FE617B284600F019FE00236373D5F87F
:102F3C007833D86928B101F0BBFED5F8783300227C
:102F4C00DA61002038BDF0B5022285B001231146AC
:102F5C00054600F0B2F9FF28064602D1022005B062
:102F6C00F0BD0146284600F09FF95020D5F8787343
:102F7C0001F096FE1A2303FB0656F86196F84A33C5
:102F8C001A0642BF4370B6F84C334381044641786D
:102F9C00284600F0CCFD0146207060890290032089
:102FAC00019095F81D0395F81C3362780090284623
:102FBC0000F0A9FD00222178284601F001FE002333
:102FCC001A460A21284600F078F9FF28C6D01A23A1
:102FDC0003FB005103FB005091F84A2390F8523345
:102FEC00B1F84C1312F0800F0DBFA273E273618322
:102FFC00218313F0800F08BFA373B0F85423A17B77
:10300C0018BFE373284614BF6283228300F08FFD40
:10301C00E17B6073284600F08AFD2073208B0290C0
:10302C00022695F81D0395F81C33A27B617B019653
:10303C000090284600F067FD608B029095F81D0308
:10304C0095F81C33E27B217B0196009000262846E4
:10305C0000F059FD3246617B84F84C60284601F043
:10306C00AFFD3246217B284601F0AAFD304676E7BB
:10307C0038B5D0F87833D969A1230374212343746C
:10308C000722002343828382C2824031044600F02F
:10309C00C9FA054620B9D4F8C8330221204698470E
:1030AC00284638BD704770477047D0F8783373B5F1
:1030BC00DC6994F84C300546042B3DD8DFE803F06E
:1030CC0003061742A600002002B070BD2123A16C9C
:1030DC000374202343740722002343828382C28219
:1030EC0000F0A0FA50BB022384F84C3024E0A1235A
:1030FC000374212343740722002343828382C282F8
:10310C0004F1400100F08EFAC0B9626CA36C84F833
:10311C004C0002F0FF115A6802F0FF1291420BD1E1
:10312C0094F845105A79914206D1226C1B689A4248
:10313C0002D12846FFF7B8FF0120C5E70128FBD0D4
:10314C000423D1E794F84D10012921D002292ED067
:10315C00D5F87833DE6996F84E30032B45D0042B26
:10316C00EAD1317B284601F01BFD0128E4D1317BEB
:10317C00284601F0D1FCB36A984240D0728B904241
:10318C003DD91B1AB362336A18443062032333E00F
:10319C00606A228B637B0091904298BF82B2E16996
:1031AC00284600F089FC022384F84D30D0E7617B7F
:1031BC0001F0F6FC012815D1636A228B934283BF80
:1031CC009B1A6362E36900238ABF9B186362E36105
:1031DC00636A0BB10123E7E784F84D302846FFF70B
:1031EC0061FFB5E70228B3D1F4E7337B728B316A08
:1031FC00284600F078FC042386F84E309CE7002328
:10320C0086F84E302846FFF74EFF95E7002100F078
:10321C000DFC002890D184F84C008DE700F560730C
:10322C0000F56F72002143F8041B9342FBD100F5AB
:10323C008E7200F54771002302F8013B9142FBD1DD
:10324C0001224021037043708270C0F8BC330276B7
:10325C008171437680F81C3380F81D230020704761
:10326C0038B50D46044680B1002380F8C023C0F861
:10327C007833C0F87C33FFF7D1FF0DB1C4F8C853D5
:10328C00204601F0E7FB002038BD022038BD49B1D3
:10329C00D0F87C3333B90122C0F87C23C0F8741306
:1032AC00184670470220704790F838338B4286BF1F
:1032BC0080F8201300200220704770B5002490F88D
:1032CC0043638E42E5B201D0FF290BD190F84463E1
:1032DC00964201D0FF2A05D190F845639E4207D053
:1032EC00FF2B05D00134022C00F11A00E7D1FF2589
:1032FC00284670BD10B5044601F0D6FB01212046CE
:10330C0001F052FC002010BD30B587B002238DF8BF
:10331C00173090F81F33044633B9027822B1027883
:10332C00032A1CBF0322027022780B2A18D8DFE86C
:10333C0012F00C001A001F00210117004F000701AA
:10334C00C600D000DA00E700180194F81E333BB138
:10335C000123C820237001F042FC204601F0CEFB73
:10336C00002007B030BD012BFAD102232370F7E700
:10337C00642001F034FC204601F0B2FB05232370DD
:10338C0084F81D030021204600F0D1FB80216071E0
:10339C00204600F0CCFBA27994F81C332071014636
:1033AC000292002594F81D2300920195802220465C
:1033BC0000F0A9FBA279029294F81D23009294F8D4
:1033CC001C33617901952A46204600F09CFBC7E727
:1033DC006378072BC4D8DFE803F004151E3038419E
:1033EC004F5D0821204600F0FAF905460028B7D1B8
:1033FC00012394F829236370217994F81C33A2716A
:10340C000292CFE71221204600F0E9F90028A7D15B
:10341C0002236370A4E70121204600F0DDFA054683
:10342C0000289DD1022001F0DAFB032201236270F7
:10343C0084F81C332179A279E2E70921204600F0B7
:10344C0016FA00288CD10423E3E7B4F8361320468F
:10345C0000F00DFA002883D10523DAE794F8301335
:10346C0041B1FF2304F58E72204600F08EFA00283D
:10347C007FF476AF0623CCE794F8311341B1FF23E8
:10348C0004F58E72204600F080FA00287FF468AFB5
:10349C000723BEE794F8321341B1FF2304F58E7273
:1034AC00204600F072FA00287FF45AAF002384F80B
:1034BC00203394F83333012B09D0072356E7D4F883
:1034CC00C833002B3FF44CAF01212046984708230A
:1034DC004CE794F83913204600F08CFA00287FF45E
:1034EC003FAF092342E794F83B339B0606D50121F5
:1034FC00204600F08DFA00287FF432AF0A2335E71E
:10350C00D4F87C33002B3FF42BAF0023C4F8783372
:10351C00D4F8743394F843231979914208BFC4F852
:10352C007833D4F87833D3B19B6820469847B0B938
:10353C00062323700321D4F8C833204698470FE79D
:10354C00D4F878335BB11B69204698478DF8170087
:10355C009DF81730002B7FF403AF0B2306E70D23E8
:10356C0004E7D4F87833002B3FF4FAAE5B692046BD
:10357C009847F5E62046FFF751FED4F87833002B38
:10358C003FF4EEAEDB68204698470023C4F878334E
:10359C00E6E6C0F8BC137047D0F8BC230132C0F883
:1035AC00BC2302780B2A04D1D0F878330BB19B6979
:1035BC0018477047012380F81F337047002380F8A9
:1035CC001F337047027808B54AB9D0F8C8330122C6
:1035DC0080F81E230BB104219847002008BD90F8F9
:1035EC001F23012A04BF02220270F6E710B504461D
:1035FC0001F068FA2179204600F0B0FA6179204692
:10360C0000F0ACFA002384F81E33D4F8C83313B19D
:10361C00052120469847204601F046FA03232370E3
:10362C00002010BD13B504468078012803D0022871
:10363C0008D0012004E00223A160A2812076A370AF
:10364C0002B010BD237E013B01210A2BF1D8DFE82B
:10365C0003F0060F2B36404C646F808C950062791A
:10366C0004F11001204600F0EFF902232376E0E785
:10367C006179204601F094FA01280FD1E28A94F97D
:10368C0010302AB1002B01DA0323EFE70523EDE715
:10369C00002B01DA0923E9E70723E7E7042801D027
:1036AC000228C6D10B23E1E7D4F8BC33E381A2890D
:1036BC002379A168204600F0EFF90423D6E721799D
:1036CC00204601F06DFA0128E4D0052815D0042815
:1036DC00E7E763790091A289A168204600F0C5F95B
:1036EC00D4F8BC33E3810623C0E76179204601F0AE
:1036FC0057FA0128D0D0052805D10123A370002347
:10370C00237603209CE70228C0D0042891D10B23F8
:10371C0023760123A370022092E70022237911461D
:10372C00204600F0B9F9D4F8BC33E38108239DE7B7
:10373C002179204601F034FA012804D1012300201C
:10374C00A37020767CE70428ACD005287FF471AFF9
:10375C00D3E70022637900912046114600F085F9E9
:10376C00D4F8BC33E3810A2380E76179204601F069
:10377C0017FA0128E2D00228A9D18BE7637E013326
:10378C00DBB2022B637606D8204601F09BF90123AD
:10379C002376A3704DE7D4F8C8330621204698470A
:1037AC0000236376B5E730B48478BDF80850012C5B
:1037BC0010D161F07F04047402F47F44B4F5407FAF
:1037CC0042824FF006010CBF40F2094200224174C4
:1037DC008282C5822A46194630BCFFF723BF37B513
:1037EC0000F58E730D4600914FF480720021044653
:1037FC00FFF7D9FFC8BB94F81C3184F8223394F836
:10380C001D3184F82333B4F81E31A4F8243394F812
:10381C00203184F8263394F8213184F8273394F836
:10382C00223184F82833082D94F8233184F8293375
:10383C001BD9B4F82431A4F82A33B4F82631A4F8EF
:10384C002C33B4F82831A4F82E3394F82A3184F8A8
:10385C00303394F82B3184F8313394F82C3184F8CC
:10386C00323394F82D3184F8333303B030BD2DE965
:10387C00F74300F11C050E4600912B464FF40072E5
:10388C0000210446FFF78FFF48BB237F84F83433B5
:10389C00637F84F8353394F8203084F8383394F807
:1038AC00213084F8393394F8223084F83A3394F880
:1038BC002330B4F81EE084F83B33092E94F82430FE
:1038CC00A4F836E384F83C3309D927462B46064640
:1038DC0009224FF01A0C022E01D0964502D803B0E3
:1038EC00BDE8F08319780B440A445978042992B244
:1038FC00F1D1197887F83E13597887F83F139978E6
:10390C0087F84013D97887F84113197987F842134F
:10391C00597987F84313997987F84413D97987F83B
:10392C004513197A87F846130CFB06F8002197F813
:10393C0042538D4202D801361A37CCE79645FAD954
:10394C001D782B442A445D78052D92B2EFD14D1C85
:10395C0008EBC501214493F8009081F8409393F84B
:10396C00019081F8419393F8029081F8429393F877
:10397C00039081F84393B3F80490A1F8449393F81F
:10398C00069081F84693E9B2D1E7F7B500F58E754C
:10399C0014461F46009341F440722B460021064604
:1039AC00FFF701FF78B996F81D31032B0BD196F870
:1039BC001C31023BBB4228BF3B469BB202469342A2
:1039CC0003D80023237003B0F0BDA9180232897804
:1039DC0004F8011B92B2F2E78378012B06D1002385
:1039EC0005220374427441828382C38200221146F1
:1039FC00FFF718BE8378012B06D10023092203742C
:103A0C00427441828382C38200221146FFF70ABEB0
:103A1C008378012B06D10023032203744274418264
:103A2C008382C38200221146FFF7FCBD8378012BF1
:103A3C0006D1022243740023027443828182C38222
:103A4C0000221146FFF7EEBD30B585B000241546B7
:103A5C00082302930191039400942346224629469D
:103A6C0001F084F8204605B030BD30B590F81D53F8
:103A7C0085B0002D1C469DF82030029218BF002303
:103A8C00039301230093002301911A46214601F070
:103A9C006DF8002005B030BD30B585B000241D4652
:103AAC00029201220191039400922346294601F0CF
:103ABC005DF8204605B030BD30B590F81D5385B08B
:103ACC00002D1C469DF82030029218BF0023039352
:103ADC0001230191009300220223214601F046F8B4
:103AEC00002005B030BD30B585B01D4600240292D3
:103AFC0001220191039400920223294601F036F829
:103B0C00204605B030BD1FB5BDF8204002949DF88D
:103B1C001C4001949DF81840009401F001F800201D
:103B2C0004B010BD08B501F013F8002008BD30B585
:103B3C00002300F5607454F8045B2D04DAB207D44A
:103B4C00E03341F4004140F8231092B2D0B230BDC2
:103B5C0001330B2BEFD14FF6FF72F7E70A299FBF0A
:103B6C0000EB8100D0F88033C3F30E03C0F8803330
:103B7C000020704710B586B00F4C8DF80F00002256
:103B8C004FF400510D48FCF745FE2046002204215D
:103B9C00FCF740FE4FF6FF7300930DF11702012363
:103BAC000DF10F010648FEF76EF9012204212046A3
:103BBC00FCF730FE06B010BD00080240000C0240BD
:103BCC001801002010B586B00F4C8DF80F000122A3
:103BDC004FF400510D48FCF71DFE20460022042135
:103BEC00FCF718FE322300930DF1170201230DF19F
:103BFC000F010748FEF747F9012204212046FCF784
:103C0C0009FE06B010BD00BF00080240000C0240C7
:103C1C001801002008B5CA20FFF7ACFFC320FFF73E
:103C2C00D1FF0820FFF7CEFF5020FFF7CBFFCF20AE
:103C3C00FFF7A0FF0020FFF7C5FFC120FFF7C2FF71
:103C4C003020FFF7BFFFED20FFF794FF6420FFF754
:103C5C00B9FF0320FFF7B6FF1220FFF7B3FF812057
:103C6C00FFF7B0FFE820FFF785FF8520FFF7AAFFDD
:103C7C000020FFF7A7FF7820FFF7A4FFCB20FFF76A
:103C8C0079FF3920FFF79EFF2C20FFF79BFF0020C8
:103C9C00FFF798FF3420FFF795FF0220FFF792FF04
:103CAC00F720FFF767FF2020FFF78CFFEA20FFF7D4
:103CBC0061FF0020FFF786FF0020FFF783FFB12094
:103CCC00FFF758FF0020FFF77DFF1B20FFF77AFF5F
:103CDC00B620FFF74FFF0A20FFF774FFA220FFF773
:103CEC0071FFC020FFF746FF1020FFF76BFFC120CC
:103CFC00FFF740FF1020FFF765FFC520FFF73AFFE5
:103D0C004520FFF75FFF1520FFF75CFFC720FFF78B
:103D1C0031FF9020FFF756FF3620FFF72BFFC8200E
:103D2C00FFF750FFF220FFF725FF0020FFF74AFFB7
:103D3C00B020FFF71FFFC220FFF744FFB620FFF7AC
:103D4C0019FF0A20FFF73EFFA720FFF73BFF2720B4
:103D5C00FFF738FF0420FFF735FF2A20FFF70AFF93
:103D6C000020FFF72FFF0020FFF72CFF0020FFF7AC
:103D7C0029FFEF20FFF726FF2B20FFF7FBFE00208B
:103D8C00FFF720FF0020FFF71DFF0120FFF71AFFB0
:103D9C003F20FFF717FFF620FFF7ECFE0120FFF79F
:103DAC0011FF0020FFF70EFF0620FFF70BFF2C2062
:103DBC00FFF7E0FEC820FCF7C7FB2620FFF7DAFE72
:103DCC000120FFF7FFFEE020FFF7D4FE0F20FFF7E6
:103DDC00F9FE2920FFF7F6FE2420FFF7F3FE0C2056
:103DEC00FFF7F0FE0E20FFF7EDFE0920FFF7EAFECD
:103DFC004E20FFF7E7FE7820FFF7E4FE3C20FFF7AC
:103E0C00E1FE0920FFF7DEFE1320FFF7DBFE0520A5
:103E1C00FFF7D8FE1720FFF7D5FE1120FFF7D2FED3
:103E2C000020FFF7CFFEE120FFF7A4FE0020FFF7F4
:103E3C00C9FE1620FFF7C6FE1B20FFF7C3FE0420A9
:103E4C00FFF7C0FE1120FFF7BDFE0720FFF7BAFEFB
:103E5C003120FFF7B7FE3320FFF7B4FE4220FFF707
:103E6C00B1FE0520FFF7AEFE0C20FFF7ABFE0A20DB
:103E7C00FFF7A8FE2820FFF7A5FE2F20FFF7A2FED4
:103E8C000F20FFF79FFE1120FFF774FEC820FCF7F0
:103E9C005BFB2920FFF76EFE2C20BDE80840FFF7E6
:103EAC0069BE000070B53024A0B02246002108A8DD
:103EBC0000F006FF1422002103A800F001FF2246A7
:103ECC00002114A800F0FCFE0025224B01951A6C71
:103EDC0042F080521A641B6C1F4A03F0805301930A
:103EEC00019B0295136823F4404343F48043136011
:103EFC00136803F440430293029B012308934FF48D
:103F0C0080030F9304231093482302244FF480362C
:103F1C00119308A80323139309960E941294FDF79A
:103F2C004BFB0F23039321464FF4805303A80693B6
:103F3C00049405950795FDF7EFFC082314933C2397
:103F4C00189314A805231A931D96FDF7BDFD20B0F8
:103F5C0070BD00BF00380240007000402DE9F04FEA
:103F6C00AE4D0FCDA3B00BAC0FC40FCD0FC495E865
:103F7C00030084E80300FCF7BBFAFFF793FF14225D
:103F8C00002115A8002400F09BFEA54B01941A6B90
:103F9C00A448A54D42F004021A631A6B02F0040205
:103FAC000192019A02941A6B42F020021A631A6B66
:103FBC0002F020020292029A03941A6B42F08002E1
:103FCC001A631A6B02F080020392039A04941A6B20
:103FDC0042F001021A631A6B02F001020492049A75
:103FEC0005941A6B42F002021A631A6B02F0020279
:103FFC000592059A06941A6B42F040021A631A6BEA
:10400C0002F040020692069A07941A6B42F01002D4
:10401C001A631A6B02F010020792079A08941A6B33
:10402C0042F008021A631B6B03F008030893224644
:10403C001621089BFCF7EEFB224680217B48FCF7FF
:10404C00E9FB22464FF440517948FCF7E3FB22464A
:10405C004FF4C0417748FCF7DDFB0126162315A968
:10406C0070481593169617941894FCF7E7FA48F2D3
:10407C00070315A96D48159316951794FCF7DEFAEE
:10408C00802315A969481593169617941894FCF774
:10409C00D5FA202315A96348159304271695179470
:1040AC00FCF7CCFA15A9644815974FF400651694E3
:1040BC001794FCF7C3FA15A95D4815951694179437
:1040CC00FCF7BCFA4FF4405315A9594815931696B2
:1040DC0017941894FCF7B2FA4FF4C04315A955483D
:1040EC001593169617941894FCF7A8FA5348544B4A
:1040FC000360FCF791FA1C22214615A800F0E0FDA4
:10410C005048514B056280E84800402343614FF40E
:10411C00C0734FF002084FF0070915A94FF0100AB1
:10412C0083614FF0030B4FF40053484D8362CDF87D
:10413C005480CDF86880CDF86C808460C760C0F87E
:10414C0010A0C4614462CDF858901797CDF86090D8
:10415C00CDF864B0FDF7D0FD3D4A3E4BAC6085E830
:10416C000C0028464FF480432B61EC606C61AC6111
:10417C00EC612C62FCF7A2FF21462846FDF742F8C1
:10418C0021462846FDF75DF83422214615A800F09B
:10419C0097FD314D314BAE6185E8180009236B61F9
:1041AC001D23EB6140F20D136B6240F24313AB62C3
:1041BC0040F21713EB62284640F247132B63AC60B6
:1041CC00EC602C61C5F820B085F8344085F835409A
:1041DC0085F83640FDF7DAF8FF211A914FF4C061EB
:1041EC00F0221C914FF050414FF4A07316921E9187
:1041FC001F9215A9224628461893CDF86480209367
:10420C00159417941B94CDF874908DF884408DF808
:10421C0085408DF88640FDF785F921E0704E000849
:10422C00003802400008024000001210000002405A
:10423C00000C0240001802400004024070010020F3
:10424C0000300240A05A0220400100A0C40000200F
:10425C00005C0040A086010078010020006801404D
:10426C0037483849DFF8F48084604FF4827380E873
:10427C000A004FF4007383611823C3610A23C362DD
:10428C00C46004614461046244628462FDF7BEFD53
:10429C005246214615A800F013FD2B4B09944046BD
:1042AC0088E818000A94C8F80840C8F80C40C8F808
:1042BC001040C8F81440C8F81840FDF7F1FF4FF44F
:1042CC00805315A940461593FEF70EF809A94046F0
:1042DC0009940A94FEF79CF81C481D4B84604FF41B
:1042EC00E13E80E808400C234361C46004618461B2
:1042FC00C461FEF7C7F900F029FB32463946154870
:10430C00154EFCF787FAFFF785FC28462246124922
:10431C00FDF731F90BAD00F039FB002435F8242002
:10432C00002326F813200133B3F5963FF9D14FF44F
:10433C007A700134FCF708F90A2CEFD1EBE700BFD7
:10434C001801002000500140000001402002002014
:10435C000010014000080240A00200206002002072
:10436C000268034B9A4201D1FCF7DCB8704700BFDE
:10437C00001000407047000082B00C4B00210091EF
:10438C005A6C42F480425A645A6C02F48042009295
:10439C00009A01911A6C42F080521A641B6C03F063
:1043AC0080530193019B02B0704700BF003802405C
:1043BC000268094B9A4282B00BD100230193074B40
:1043CC001A6B42F480521A631B6B03F480530193F3
:1043DC00019B02B0704700BF003002400038024021
:1043EC002DE9F041044688B01422002103A800F006
:1043FC0067FC2268204B9A423AD1204C2048002579
:10440C000095236B43F004032363236B03F0040335
:10441C000093009B0195236B43F001032363236BF3
:10442C0003F001030193019B4FF012084FF400734A
:10443C000127042603A90393CDF81080059707964E
:10444C00FCF7FCF84FF4807303A90E480393CDF8E6
:10445C001080059706950796FCF7F0F80295236CEB
:10446C0043F400032364236C03F400030293029BC4
:10447C0008B0BDE8F08100BF005C0040003802408D
:10448C000008024000000240F0B504468DB0142232
:10449C00002107A800F014FC2268574B9A4240F008
:1044AC00A880002403F5504300945A6C534842F002
:1044BC0080625A645A6C02F080620092009A0194F5
:1044CC001A6B42F020021A631A6B02F0200201925E
:1044DC00019A02941A6B42F001021A631A6B02F0F1
:1044EC0001020292029A03941A6B42F002021A63BE
:1044FC001A6B02F002020392039A04941A6B42F0B4
:10450C0040021A631A6B02F040020492049A05945A
:10451C001A6B42F004021A631A6B02F00402059241
:10452C00059A06941A6B42F008021A631B6B03F08F
:10453C000803069302250E26069B08954FF480630C
:10454C0007A907930B96FCF779F841F6580307A9CE
:10455C002B4807930927089509940A940B96FCF7A6
:10456C006DF8032307A927480793089509940A9423
:10457C000B97FCF763F84FF4706307A92148079376
:10458C00089509940A940B96FCF758F84FF40C63B1
:10459C0007A91D480793089509940A940B96FCF7F4
:1045AC004DF84FF4986307A9184807930895099498
:1045BC000A940B96FCF742F8482307A91448079372
:1045CC00089509940A940B96FCF738F84FF4A0530D
:1045DC0007A90D480793089509940A940B97FCF7C3
:1045EC002DF8582022460521FBF7D4FF5820FCF764
:1045FC0005F80DB0F0BD00BF00680140001402408A
:10460C000000024000040240001802400008024072
:10461C00000C024010B5044688B01422002103A8F7
:10462C0000F04EFB2268134B9A4221D103F56843EC
:10463C00002101915A6C104842F480125A645A6C51
:10464C0002F480120192019A02911A6B42F020023C
:10465C001A631B6B03F020030293029B4FF46073ED
:10466C0003930223049303A905230793FBF7E6FFA7
:10467C0008B010BD00500140001402400268094B04
:10468C009A4282B00BD100230193074B5A6C42F033
:10469C0001025A645B6C03F001030193019B02B0AD
:1046AC00704700BF000001400038024010B50446BE
:1046BC0088B01422002103A800F002FB2268154BDD
:1046CC009A4225D103F59433002101915A6C12487A
:1046DC0042F010025A645A6C02F010020192019AD4
:1046EC0002911A6B42F001021A631B6B03F0010377
:1046FC000293029B4FF4C0630393022304930123A0
:10470C0005930323069303A907230793FBF796FF4F
:10471C0008B010BD00100140000002402DE9F0412E
:10472C0086B01422002101A800F0CAFA2B4B1C6899
:10473C00002C50D14FF00108C3F80080284B009496
:10474C009A6B284842EA08029A639B6B03EA0803B7
:10475C000093022703260C25009B02974FF63F037C
:10476C0001A9019304960595FBF768FF01A91E4862
:10477C00CDF804800297039404960595FBF75EFF31
:10478C0048F2331301A91948019302970394049634
:10479C000595FBF753FF4FF6837301A9144801935A
:1047AC000297039404960595FBF748FF4CF20373AC
:1047BC0001A9104801930297039404960595FBF701
:1047CC003DFF602301A90C480193029703940496C2
:1047DC000595FBF733FF06B0BDE8F081AC00002077
:1047EC000038024000140240000802400018024049
:1047FC0000100240000C02400004024030B501469B
:10480C0089B000223620FBF7C5FE3620FBF7F6FEFA
:10481C000025154B02951A6C144C42F010021A64C8
:10482C001B6C03F01003029301A903A8029BFDF774
:10483C002DF9FDF70BF90E4B236040F2E733E360E3
:10484C0040000C4BB0FBF3F0013860602046256152
:10485C00A560FDF725FD20B92046FDF704FC09B045
:10486C0030BD0120FBE700BF00380240D45A0220C3
:10487C000010004040420F007047FEE7FEE7FEE7E5
:10488C00FEE770470148FDF702BC00BFD45A022076
:10489C000148FCF7BBB800BFE05E02200148FCF702
:1048AC00E4BD00BF7801002008B50A4B1968024628
:1048BC0009B9094919601868694602448A4206D93F
:1048CC0000F0C4F90C2303604FF0FF3008BD1A60F0
:1048DC0008BD00BFB0000020A86102200F49D1F82C
:1048EC00883043F47003C1F888300D4B1A680020EF
:1048FC0042F001021A6098601A6822F0847222F465
:10490C0080321A60074A5A601A6822F480221A60B0
:10491C00D8604FF000638B60704700BF00ED00E083
:10492C00003802401030002404290AD0052904D094
:10493C00022905D1044B197070470322024B1A70DF
:10494C0070470122FAE700BFB400002008B500222E
:10495C000B490C48FEF784FC08B1FFF70BFD0A4924
:10496C000848FEF794FC08B1FFF704FD0548FEF774
:10497C00C1FC18B1BDE80840FFF7FCBC08BD00BF86
:10498C0035490008145B0220040000200148FEF7A2
:10499C00BBBC00BF145B022030B5044689B01422A6
:1049AC00002103A800F08CF922681C4B9A4232D1EA
:1049BC0000251B4C0195236B1A4843F0020323631B
:1049CC00236B03F002030193019B4FF450430393B9
:1049DC00022304930C230DEB03010793FBF72EFE2C
:1049EC004FF4005303A90F48039304950595FBF767
:1049FC0025FE0295236B43F000532363236B03F0D6
:104A0C00005302934D202A462946029BFBF7C2FD18
:104A1C004D20FBF7F3FD09B030BD00BF0000044092
:104A2C000038024000040240D0F8C002FEF7B4BDCA
:104A3C00D0F8C002FEF7C6BDD0F8C002FEF7D6BD56
:104A4C007047D0F8C002FEF7B5BDD0F8C002FEF733
:104A5C00B5BD000010B590F8C0330446EBB9104852
:104A6C00104A02600C2282600122C260C4F8C403A6
:104A7C000222C0F8C04203618261C3610362C36257
:104A8C004363FBF716FF08B1FFF774FC0448FCF70F
:104A9C000FFB01462046FEF77CFD002010BD00BF39
:104AAC00E05E02200000044008B5D0F8C403FCF717
:104ABC00C9FA03289ABF024B185C022008BD00BF3C
:104ACC00B74E000808B5D0F8C403FCF7D1FA032898
:104ADC009ABF024B185C022008BD00BFB74E0008FD
:104AEC0008B5D0F8C403FCF7E6FA02289ABF024BCB
:104AFC00185C012008BD00BFB44E000808B5D0F802
:104B0C00C403FCF7C7FA03289ABF024B185C0220B7
:104B1C0008BD00BFB74E0008D0F8C403FCF7C3BAF9
:104B2C001FB5BDF8204002949DF81C4001949DF8DF
:104B3C0018400094D0F8C403FBF771FE03289ABF09
:104B4C00024B185C022004B010BD00BFB74E000829
:104B5C0008B5D0F8C403FBF79AFE03289ABF024BA2
:104B6C00185C022008BD00BFB74E00081FB59DF8A9
:104B7C0024400394BDF820400294079C01949DF8B6
:104B8C0018400094D0F8C403FBF7DEFE03289ABF4C
:104B9C00024B185C022004B010BD00BFB74E0008D9
:104BAC00D0F8C403FCF779BA08B590F8C03313B940
:104BBC00084600F017F8C820FBF7C6FC002008BD1B
:104BCC00D0F8C403282303FB010191F83B301BB13F
:104BDC0081F850200020704781F85120FAE7FBF74C
:104BEC00B3BC0000B0FA80F2520910210148FBF767
:104BFC0011BE00BF00080240DFF834D0002103E0F2
:104C0C000C4B5B58435004310B480C4B42189A42E6
:104C1C00F6D30B4A02E0002342F8043B094B9A42BC
:104C2C00F9D3FFF75BFE00F017F8FFF797F9704721
:104C3C0000000320CC4E0008000000208C00002057
:104C4C008C000020A8610220FEE70000014B1868D0
:104C5C00704700BF2800002070B50D4E0D4CA41BF2
:104C6C00A4100025A54209D10B4E0C4C00F0EEF817
:104C7C00A41BA4100025A54205D170BD56F8253003
:104C8C0098470135EEE756F8253098470135F2E79D
:104C9C00C44E0008C44E0008C44E0008C84E00089C
:104CAC00024B0146186800F061B800BF28000020D4
:104CBC00024B0146186800F00BB800BF280000201A
:104CCC0002440346934200D1704703F8011BF9E7F5
:104CDC0038B50546002945D051F8043C0C1F002B73
:104CEC00B8BFE41800F0B0F81F4A1368104633B987
:104CFC00636014602846BDE8384000F0A6B8A342B3
:104D0C000CD921686218934204BF1A685B6863600F
:104D1C0004BF521822600460ECE713465A680AB1CB
:104D2C00A242FAD919685818A0420BD12068014444
:104D3C00581882421960DDD1106852685A600144DB
:104D4C001960D7E702D90C232B60D3E72068211810
:104D5C008A4204BF11685268626004BF091821605E
:104D6C005C60C7E738BD00BFB800002070B5CD1C33
:104D7C0025F0030508350C2D38BF0C25002D0646F3
:104D8C0001DBA94203D90C233360002070BD00F075
:104D9C005BF8234A1468214691B9224C23681BB94D
:104DAC00304600F041F820602946304600F03CF8CF
:104DBC00431C26D10C233360304600F046F8E4E760
:104DCC000B685B1B1AD40B2B0FD90B60CD50CC1876
:104DDC00304600F03AF804F10B00231D20F00700D8
:104DEC00C31A1BD05A42E25070BD8C420DBF63688F
:104DFC004B686360136018BF0C46E9E70C464968C2
:104E0C00CAE7C41C24F00304A04205D0211A304682
:104E1C0000F00AF80130CDD02560D9E770BD00BF95
:104E2C00B8000020BC00002038B5064C0023054615
:104E3C0008462360FFF738FD431C02D1236803B1F9
:104E4C002B6038BDA461022070477047F8B500BFD5
:104E5C00F8BC08BC9E467047F8B500BFF8BC08BC4F
:044E6C009E467047A7
:104E7000FFFF000000000000DEF700001F00000040
:104E80001F05000000F800001FF80000E007000008
:104E9000FF7F0000E0FF00004344430000000000EB
:104EA00000000000010203040607080900000000DA
:0C4EB000010203040001020002010200E4
:084EBC0060B3FF7F010000005C
:044EC400D101000810
:044EC800AD01000830
:104ECC0001000000984E000802000000532F00085B
:104EDC00F12E00087D300008B7300008ED2E0008D8
:104EEC00000000000024F4002C0000200000000052
:104EFC0000000000000000000000000000000000A6
:104F0C000000000000000000000000000000000095
:104F1C000000000000000000000000000000000085
:104F2C000000000000000000000000000000000075
:104F3C000000000000000000000000000000000065
:0C4F4C0000000000000000000000000059
:0400000508004C059E
:00000001FF
